:1000000012C019C018C017C016C015C014C013C044
:1000100012C011C010C00FC00EC00DC00CC00BC06C
:100020000AC009C008C011241FBECFE5D4E0DEBF5E
:10003000CDBF02D086C0E4CF1F93CF93DF938FEF65
:1000400081BB14BA8EE187BBA0E169E170E012E1E7
:10005000C8EAD1E6B2E083B390E023B3422F50E088
:100060004870507022B3209522BB9C0121703070E3
:1000700080FD03C04830510521F4A2BB2115310594
:10008000B1F44115510589F418BA80E197E2FB01FA
:100090003197F1F70197D9F718BA80E197E2FB01A0
:1000A0003197F1F70197D9F7A2BB20E030E021307A
:1000B0003105C1F441155105A9F418BA80E197E260
:1000C000FB013197F1F70197D9F7A8BB80E197E2DF
:1000D000FB013197F1F70197D9F7A2BB40E050E05F
:1000E00020E030E080E04830510509F481E021153E
:1000F0003105A1F4882391F018BA88E893E1FB0157
:100100003197F1F70197D9F7B8BB80E197E2FB018E
:100110003197F1F70197D9F7A2BB9DCF2130310577
:1001200009F099CF882309F496CF18BBCE01019727
:10013000F1F718BACE010197F1F782B3809582BB2F
:060140008ACFF894FFCF06
:00000001FF
